:03000000020047B4
:10000300EB30E11320E00EC083C08289828A83E053
:10001300D082D08322E3226405700EC083C082891C
:0B002300828A8393D082D08322E722E0
:10002E00E0A3FEE0FFEF8DF0A4CFC5F0CCA42CFC36
:09003E00EE60038DF0A42CFE22FB
:10004700758136E4787FF6D8FD9000C0E49370029E
:10005700804EC31392D5C31392D1FFA3E493F8B094
:10006700D5402130D505E4A393F5A0E420D102A320
:100077009320D507F608DFF3A380D1F208B800F67E
:1000870005A080F2E8030303541F2420F9E854076E
:10009700F8E4D333B80002800333D8FD47F780D89C
:0600A70075A0FF0200AD90
:1000AD00E4F528F5297B01FA79087D20120149E450
:0300BD00FEFF2221
:1000C00080080000000000000001000000020000A5
:1000D000000300000004000000050000000600000E
:0200E000000717
:0100E200001D
:1000E300EDF404541F8F03F808EE8005C313CB13FC
:1000F300CBD8F9FAC002C0038F03EB8E028D040C38
:100103008005C333CA33CADCF9FBD0E04BFFD0E030
:030113004AFE227F
:10011600EDF404541F8E02F808EF8005C333CA338A
:10012600CAD8F9FBC002C0038F038E02EA8D040C05
:100136008005C313CB13CBDCF9FAD0E04BFFD0E03C
:030146004AFE224C
:100149008B2A8A2B892C8D2DE528643BF52E852950
:100159002FAE28AF297D0F1200E38E308F31852A0B
:1001690032852B33852C34753500E535B52D005096
:010179004B3A
:10017A00AB32AA33A934120003FBE52F2BF52FE487
:10018A00352EF52EAE2EAF2FE4FC7D091200338EEC
:10019A002E8F2FE531252FF531E530352EF530AE8E
:1001AA0030AF317D071200E38E308F31E4FC7D05DC
:1001BA001200338E308F31053580AEE52F6531F56B
:1001CA002FE52E6530F52EAE30AF317D0E1200E3ED
:1001DA00E52F2FF52FE52E3EF52EE531652FF5316A
:1001EA00E530652EF530AE2EAF2F7D06120116E5ED
:1001FA00312FF531E5303EF530E52F6531F52FE544
:10020A002E6530F52EAE30AF311D1200E3E52F2FEB
:10021A00F52FE52E3EF52EE531652FF531E53065F2
:10022A002EF530AE2EAF2F7D08120116E5312FF5CF
:0B023A0031E5303EF530AE30AF312230
:00000001FF
