:030000000201E218
:10000300CB30E11520E00FC083C08289828A83CB85
:0C001300F0D082D08322CBF322CBF72266
:10001F00E92582C9C582EA3583CAC583120033A98F
:04002F0082AA8322FC
:10003300EB30E11320E00EC083C08289828A83E023
:10004300D082D08322E3226405700EC083C08289EC
:0B005300828A8393D082D08322E722B0
:10005E00E0A3FEE0FFEF8DF0A4CFC5F0CCA42CFC06
:09006E00EE60038DF0A42CFE22CB
:10007700D2D57F018002C2D5ED70030201DD54079E
:100087002323F58289F0EAFDEB70012254034582B0
:10009700239000E173E608F70920D50470F7803F45
:1000A700DEF3DFF1803989828D83E608F0A320D55E
:1000B7000470F7802ADEF3DFF18024E608F30920D5
:1000C700D50470F78019DEF3DFF1801388828C8303
:1000D700E0A3F70920D50470F78004DEF3DFF1020F
:1000E70001DA80B180AF80BE80D180E080DE8051B0
:1000F700806B80168014803480218099809780A639
:1001070080B980438041803C8068E208F70920D5A8
:100117000470F780CADEF3DFF180C4E208F3092038
:10012700D50470F780B9DEF3DFF180B389828D8360
:10013700E208F0A320D50470F780A4DEF3DFF18096
:100147009E0201B502018F88828C83E493A3F7098D
:1001570020D50470F68088DEF2DFF080F888828C84
:1001670083E0A3F30920D50470F780E9DEF3DFF11C
:1001770080E388828C83E493A3F30920D50470F687
:1001870080D3DEF2DFF080CD88828C83E493A3C92D
:10019700C582C9CDC583CDF0A3C9C582C9CDC583E5
:1001A700CD20D50470E680ADDEE2DFE080A788824F
:1001B7008C83E0A3C9C582C9CDC583CDF0A3C9C5CA
:1001C70082C9CDC583CD20D50470E780DFDEE3DFAC
:0301D700E180D9EB
:0801DA00A9F022E4FBFAF9226E
:1001E200758172E4787FF6D8FD90028FE4937002F5
:1001F200804EC31392D5C31392D1FFA3E493F8B0F8
:10020200D5402130D505E4A393F5A0E420D102A383
:100212009320D507F608DFF3A380D1F208B800F6E1
:1002220005A080F2E8030303541F2420F9E85407D1
:10023200F8E4D333B80002800333D8FD47F780D8FF
:0602420075A0FF02026C32
:1002480000000000000000000000000000000000A6
:100258000000000000000000000000000000000096
:040268000000000092
:10026C007D057C0278487B01E4FA79087E24120033
:10027C00777B01793CE4FAFC7D0178081202CAE430
:03028C00FEFF2250
:10028F00903CEC967CD0FFFFAD414171F2FF9C3E5C
:10029F003B367BD2CA4E3233377B85483744569D27
:0602AF0091A3A0ABC7E81B
:1002B50048600000000100000001FFFC0001000093
:0402C5000001000034
:0102C9000034
:1002CA008B2C8A2D892E8D2F8C308831E4F532754E
:0202DA003301EE
:0602DC00E4F53475350164
:0B02E200E4F536F53774FFF538F53908
:0602ED0074FFF53AF53B39
:1002F300E53BC333FEE53975F006A424682EF88682
:1003030006088607C006C007E5392533FFE53835FB
:1003130032FEE4FC7D06120063E52E2FF9E52D3E47
:10032300AB2CFAE53B2535758300F58212001FFDE2
:100333007C00D007D006120063E5372FF537E5368A
:100343003EF536053BE53B7002053A6402453A70DB
:100353009F0539E5397002053864024538708BAE64
:1003630032AF33E4FC7D06120063E5312FFFE53045
:100373003EFEEF2535FCEE3534AB2FFAA904E53705
:100383001200030535E535B4050280030202E205D8
:0C03930033E533B4050280030202DC22D3
:00000001FF
